:100000000C942D010C944A010C944A010C944A0161
:100010000C944A010C94D4010C944A010C944A01AA
:100020000C944A010C944A010C944A010C944A0124
:100030000C944A010C9420120C944A010C944A012D
:100040000C9461110C944A010C944A010C944A01DD
:100050000C94A20F0C94600F0C944A010C944A016A
:100060000C944A010C944A010C944A010C944A01E4
:100070000C944A010C944A010C944A018402370200
:10008000370237028402570257027702E803EB0374
:10009000EB03EB03E803EF03EF03F3035072657325
:1000A00073206120627574746F6E20746F20737496
:1000B00061727420616761696E00436F6E6772617F
:1000C00074756C6174696F6E7320796F75207363DA
:1000D0006F726564206120686967682073636F725E
:1000E00065212120506C65617365207479706520ED
:1000F000796F7572206E616D653A200047414D45FC
:10010000204F5645520054686973206973206C650E
:1001100076656C3A2000596F75722073636F726553
:100120002069733A200043535345323031302F3722
:100130003230312070726F6A6563742062792043B7
:1001400068616E6F6E204B6163686F726E76757456
:10015000686964656A202D2034343435363535338A
:100160000046726F6767657200D401D101CD01C985
:1001700001C501C101BD01B901B501B10143023F92
:10018000023B02370233022F022B022702240220F5
:10019000021C02180213020F020B0207020202FEE7
:1001A00001FA01F501F101EC01E701E201DD01D8FD
:1001B000016492927D6C92926D809EA0C17C92921D
:1001C0004DE4A2A29D182848FF4492926D468A925F
:1001D0006342FE037C92A27D868A92A2C3E0100E47
:1001E00010E1C6281028C7FC021C02FDF804020416
:1001F000F9FC0202FD8080FE80816492924DFE90A7
:1002000098677C828A7C03FE9090617C82827DFE6E
:100210002010FFFE403040FFFE020203FE1028C700
:10022000040202FD82FE83FE1010FF7C82925DFEBE
:10023000909081FE929283FE82827D7C828245FE36
:1002400092926D7E90907F1B5B4B001B5B324A004D
:100250001B5B25643B256448000011241FBECFEFC3
:10026000D8E0DEBFCDBF11E0A0E0B1E0ECE7F1E304
:1002700002C005900D92AA38B107D9F723E0AAE889
:10028000B1E001C01D92A032B207E1F70E944D0C0F
:100290000C94BC180C940000E8E6F0E080818260C9
:1002A0008083D99AECE6F0E080818F6080831092A1
:1002B0008E01089580918E01823094F081E090E06B
:1002C00041E0FC01E257FE4F10824F5F842F90E027
:1002D00020918E01022E000C330B821793078CF3B2
:1002E00010928E01089593B18091930198239F708D
:1002F00081E009F480E008950F931F9380918E01AF
:10030000181644F580918F01809300015FB7F8942F
:1003100080918E018230B4F081E090E041E0FC01F8
:10032000E157FE4F2081FC01E257FE4F20834F5FD3
:10033000842F90E020918E01022E000C330B821747
:1003400093076CF380918E01815080938E01552329
:100350000CF478940E947301882301F10E944C11DF
:1003600000918A0110918B0120918C0130918D01B7
:10037000025A1E4F2F4F3F4F601771078207930796
:1003800078F00E944C1160938A0170938B018093E6
:100390008C0190938D018091000103C08FEF01C00B
:1003A0008FEF1F910F9108951F920F920FB60F922A
:1003B00011242F933F934F935F936F937F938F936A
:1003C0009F93EF93FF9343B14F7080E090E0642FD1
:1003D00070E020918E01243004F59B01082E02C0AC
:1003E000359527950A94E2F720FF17C020919301D5
:1003F00030E0082E02C0359527950A94E2F720FDDB
:100400000CC0E0918E0121E02E0F20938E010E2E64
:10041000000CFF0BE157FE4F80830196843091055D
:10042000C1F640939301FF91EF919F918F917F913E
:100430006F915F914F913F912F910F900FBE0F9051
:100440001F9018950F93262F603108F05BC0482F3E
:10045000082E000C550B660B770B4830510528F41D
:10046000FA01E25CFF4F0C94EC1481E04EC0815025
:10047000E82FF0E0DF01AA56BE4F0C91020F0034C6
:1004800008F00054EE0FFF1FEE0FFF1FEE0FFF1FCF
:10049000EE5EFE4F208131814281538164817581FE
:1004A000868197810E940315822F81702EC085500E
:1004B00090E0FC01EC56FE4F6081260F203208F0E0
:1004C0002052880F991F880F991FFC01E65FFE4F8D
:1004D00080819181A281B38104C0B695A79597953B
:1004E00087952A95D2F721E0822781700EC08091EE
:1004F00001019091020102C0969587952A95E2F735
:10050000817003C081E001C080E00F910895CF9316
:10051000DF93CDB7DEB760970FB6F894DEBF0FBE9E
:10052000CDBF90910901FE0131969E012F5E3F4F94
:100530009193E217F307E1F7BE016F5F7F4F0E94CF
:10054000EA0660960FB6F894DEBF0FBECDBFDF910E
:10055000CF9108953F924F925F926F927F928F92C8
:100560009F92AF92BF92CF92DF92EF92FF920F9342
:100570001F93CF93DF93CDB7DEB760970FB6F89494
:10058000DEBF0FBECDBF482E282F30E0F901EA565E
:10059000FE4FE081C901880F991F880F991F880FAE
:1005A000991F8E5E9E4FDC015C9011966C901197A6
:1005B00012967C90129713968C90139714969C9099
:1005C000149715961C91159716963C9016971796AA
:1005D000FC91CE0101967C016E0191E1C90ED11C06
:1005E000D901AB5FBE4F5D01252D362D472D582D0E
:1005F000692D712F832D9F2F0E2F0E9403152170BF
:1006000030E040E050E060E070E080E090E0A0E0AA
:100610000E941F1529F0D5018C91D7018C9302C03F
:10062000D7011C92EF5FE03408F0E0E0BFEFEB1A77
:10063000FB0AEC14FD04C1F6BE016F5F7F4F81E041
:10064000840D0E94EA0660960FB6F894DEBF0FBED6
:10065000CDBFDF91CF911F910F91FF90EF90DF9071
:10066000CF90BF90AF909F908F907F906F905F9052
:100670004F903F900895CF92DF92EF92FF92CF93E9
:10068000DF93CDB7DEB760970FB6F894DEBF0FBE2D
:10069000CDBF282F30E0F901EC56FE4F9081220F9C
:1006A000331F220F331FF901E65FFE4FC080D18058
:1006B000E280F380A0910801FE0131969E012F5E39
:1006C0003F4FB701A601092E04C07695679557954F
:1006D00047950A94D2F740FF02C0A08301C0108260
:1006E0009F5F903208F090E03196E217F30749F7E8
:1006F000BE016F5F7F4F8B5F0E94EA0660960FB668
:10070000F894DEBF0FBECDBFDF91CF91FF90EF9089
:10071000DF90CF900895EF92FF920F931F93CF93A6
:10072000DF93CDB7DEB760970FB6F894DEBF0FBE8C
:10073000CDBFA0910301B0910401F0900901009197
:10074000010110910201AE014F5F5F4FBE016F5E6C
:100750007F4FFA010F2EF0EFEF2EF02DCF01841B0B
:10076000950B9D01082E02C0369527950A94E2F755
:1007700020FF02C0F0820BC0980102C03695279579
:100780008A95E2F720FF02C0E08201C01082319614
:10079000E617F70719F7BE016F5F7F4F87E00E94EA
:1007A000EA0660960FB6F894DEBF0FBECDBFDF91AC
:1007B000CF911F910F91FF90EF900895482F50E037
:1007C0004830510590F4FA01EA5BFF4F0C94EC14A9
:1007D0000E948702089581500E94AA0208958550C0
:1007E0000E943B0308950E948B0308958091990114
:1007F000882341F045E360919C0180919B010E9418
:10080000CB06089540EF60919C0180919B010E946E
:10081000CB06089510929C0187E080939B01109273
:1008200099010E94F6030895E6E9F1E0128211822F
:100830001082E4E9F1E01182108280912A01853072
:1008400018F082E080932A010E942B0780E00E942A
:10085000870284E00E94870280E00E94AA0281E071
:100860000E94AA0282E00E94AA0280E00E943B034A
:1008700081E00E943B030E948B030E940A040895BA
:10088000CF9380919C010E94DE03C0919C01CF5FB9
:1008900060919B018C2F0E94220280939901C0934A
:1008A0009C010E94F60381E090E00E94920C8091EE
:1008B0009901811123C080919C018730F9F480EA6D
:1008C0009FE00E945D128AE090E00E94920C0E94DC
:1008D000A70C0E94141281E090E000909B0102C0DE
:1008E000880F991F0A94E2F72091010130910201CB
:1008F000822B932B9093020180930101CF91089555
:10090000CF9380919C010E94DE03C0919C01C15055
:1009100060919B018C2F0E94220280939901C093C9
:100920009C010E94F603CF910895CF9380919C0182
:100930000E94DE03C0919B01C1506C2F80919C01ED
:100940000E94220280939901C0939B010E94F603AA
:10095000CF910895CF9380919C010E94DE03C091B6
:100960009B01CF5F6C2F80919C010E94220280939B
:100970009901C0939B010E94F603CF910895CF93F4
:10098000DF9380919C010E94DE0381E090E00E9451
:10099000920CD0919B01DF5FC0919C01CF5F6D2FC6
:1009A0008C2F0E94220280939901D0939B01C093C7
:1009B0009C010E94F603DF91CF910895CF93DF93BE
:1009C00080919C010E94DE0381E090E00E94920CE5
:1009D000D0919B01D150C0919C01CF5F6D2F8C2F86
:1009E0000E94220280939901D0939B01C0939C01A5
:1009F0000E94F603DF91CF910895CF93DF9380910A
:100A00009C010E94DE03D0919B01DF5FC0919C019D
:100A1000C1506D2F8C2F0E94220280939901D09398
:100A20009B01C0939C010E94F603DF91CF91089532
:100A3000CF93DF9380919C010E94DE03D0919B01B4
:100A4000D150C0919C01C1506D2F8C2F0E94220269
:100A500080939901D0939B01C0939C010E94F6035F
:100A6000DF91CF91089581E0209101013091020141
:100A70002F3F3F4F09F080E0089581E090919C0165
:100A8000973009F080E008950E941B12892B21F411
:100A900081E08093990104C080919901813089F5AA
:100AA00080912A018F5F80932A010E94B80C88EE02
:100AB00093E00E945D1280912A01853020F50E940A
:100AC00086100E9414120E945A112FE78AE196E0C4
:100AD000215080409040E1F700C000002FE78AE1FC
:100AE00096E0215080409040E1F700C000000E9455
:100AF0005A010E945E110E94F6030E940A0480E0DF
:100B0000089580E0089581E008950F931F93CF9397
:100B1000DF93C0919C010C2E000CDD0B282F30E0E0
:100B200089010F5F1F4FF901EA56FE4F9081961B16
:100B300032F4F901EA56FE4F9FE390830BC09034E4
:100B40002CF4F901EA56FE4F908304C0F901EA56ED
:100B5000FE4F10820E94AA02C017D10751F4609183
:100B60009B0180919C010E942202809399010E9426
:100B7000F603DF91CF911F910F9108950F931F936B
:100B8000CF93DF93C0919C010C2E000CDD0B282F1E
:100B900030E089010B5F1F4FC017D107C9F46130E6
:100BA00041F490919B019F3071F491E090939901F1
:100BB0000FC06F3F41F490919B01911104C091E0EF
:100BC0009093990105C090919B01960F90939B0182
:100BD000F901EC56FE4F9081961B32F4F901EC5668
:100BE000FE4F9FE190830BC090322CF4F901EC563C
:100BF000FE4F908304C0F901EC56FE4F10820E9414
:100C00003B03C017D10711F40E94F603DF91CF9187
:100C10001F910F91089580912A01089580919A0162
:100C2000811150C0E2E1F1E09CE9908387EE81837D
:100C300028E322838383948385839CE396833FEC1C
:100C4000378320878EE181878FE8828783EC8387D3
:100C500081EF848788E785878687978787EC808BF5
:100C600083E3818B8FE0828B838B2FE1248B258B19
:100C7000268B378BEAE0F1E04AE956E66AE971E64D
:100C800040835183628373834BE85BE26BED71E7D2
:100C90004483558366837783909309019FED9093F6
:100CA0000801E5E0F1E091E19083818392838DED8D
:100CB0009BEB909304018093030190930201809336
:100CC000010157C0E2E1F1E096E3908387EC818374
:100CD00080E782838CE483838CE1848383E485834F
:100CE0008CE0868323E0278321E7208728E3218780
:100CF00026E0228726E82387848723EE258720EABB
:100D000026878787808B918B8EEA828B82EC838B00
:100D100083E9848B83E3858B85E1868B86E2878BF1
:100D2000EAE0F1E083E698E3A8E1B6E0808391830E
:100D3000A283B38382EE90EEA1E5B9E1848395832B
:100D4000A683B78385E3809309018FE08093080130
:100D5000E5E0F1E08CE3808381838FED828383EF94
:100D60009EEE90930401809303019093020180937F
:100D7000010180912A01882319F0815080932A0172
:100D800090919A0181E0891B80939A01089580E8EF
:100D90000E94F50F08951F93CF93DF938031B0F435
:100DA0006830A0F4142FC62FD82F81E00E941D10A8
:100DB0006C2F677080E1689F900111248D2F8F70D8
:100DC000822B0E941D10812F0E941D10DF91CF9158
:100DD0001F9108950F931F93CF93DF93883090F462
:100DE0008B01C82F82E00E941D108C2F87700E94FB
:100DF0001D10E801005F1F4F89910E941D10C01750
:100E0000D107D1F7DF91CF911F910F9108950F93E3
:100E10001F93CF93DF93803190F48B01C82F83E031
:100E20000E941D108C2F8F700E941D10E801085F1A
:100E30001F4F89910E941D10C017D107D1F7DF9174
:100E4000CF911F910F91089584E00E941D1082E0C0
:100E50000E941D1008958FE00E941D10089580E4E7
:100E600080937C0086E880937A000E94C7060E94E7
:100E70004C0140E060E07BE480E090E00E940D0FD8
:100E80000E94F01081B1886F81B98AB18AB97894D3
:100E900008950E9434106AE070E08AE090E00E94B9
:100EA000231081E691E09F938F930E9499156CE047
:100EB00070E08AE090E00E94231086E291E09F9328
:100EC0008F930E9499150E945F0C0E9446100E9409
:100ED0002B070F900F900F900F9060EF8EE591E031
:100EE0000E94D60D0DC02FE789EA93E02150804083
:100EF0009040E1F700C000000E947C018F3F29F480
:100F00000E94E50D8111EFCFE8CF08950E941404EF
:100F10000E9434100E945F0C6CE070E08CE390E063
:100F20000E94231086E191E09F938F930E94991570
:100F30000E9486106DE070E08CE390E00E94231028
:100F400086E091E09F938F930E9499150E94C310B1
:100F50000E945E110E948A110E947C010E945B0F18
:100F60000F900F900F900F9008952F923F924F92F5
:100F70005F926F927F928F929F92AF92BF92CF9229
:100F8000DF92EF92FF920F931F93CF93DF93CDB732
:100F9000DEB767970FB6F894DEBF0FBECDBF0E94D5
:100FA0004C116B017C014B015C016B8B7C8B8D8B3D
:100FB0009E8B6F87788B898B9A8B6B877C878D87CD
:100FC0009E876F83788789879A876B837C838D83DD
:100FD0009E831F8A0F2EFCE76F2E712CF02D0F2E93
:100FE000F2E42F2EF02D0F2EF1E45F2EF02D44248D
:100FF000439433243A9405E010E01A830983A7C28E
:101000000E949F1180919D01811103C0F3015082C4
:1010100002C0F3012082EAE7F0E0808180648083EF
:10102000EAE7F0E0808186FDFBCF0E944405811154
:1010300005C00E943D0581110E940A040E947C01A6
:10104000182F8F3FF1F40E94540F882309F4A6C291
:10105000EAE1F3E0808191810E944515FF89F11159
:1010600003C08B3179F496C22F89213029F48B3556
:1010700009F492C21F8A06C03F89323009F4A6C221
:10108000B9C2832DB501A4014C505E4F6F4F7F4F05
:10109000C416D506E606F70608F4B9C2232D09C022
:1010A000232D832D06C0282F1F8A832D02C01F8A5F
:1010B000232D90919D0191110FC0E8E7F0E0408150
:1010C000518160E070E040932F01509330016093B4
:1010D0003101709332010EC0E8E7F0E040815181A8
:1010E00060E070E040932B0150932C0160932D0140
:1010F00070932E0190919D01942590939D01133042
:10110000F1F12434E1F1982F9F7D9C34C1F140919D
:101110002F015091300160913101709132014C32B8
:10112000514061057105C0F502C0232D832D40910A
:101130002F01509130016091310170913201452BA6
:10114000462B472B49F140912B0150912C01609186
:101150002D0170912E014A33524061057105E0F472
:1011600040912B0150912C0160912D0170912E0125
:10117000473D51406105710578F001C01F8A0E940A
:10118000950410922F0110923001109231011092AB
:101190003201460157010CC1123099F0213489F017
:1011A0008F7D853571F040912B0150912C0160911C
:1011B0002D0170912E01493552406105710508F4E9
:1011C00043C080912F0190913001A0913101B091E5
:1011D0003201803E9140A105B10578F480912F0144
:1011E00090913001A0913101B0913201892B8A2B6D
:1011F0008B2B19F00E94DE0412C080912F01909178
:101200003001A0913101B09132018B339240A105A0
:10121000B10518F00E94BF0402C00E9440040E9461
:10122000861010922F01109230011092310110920D
:10123000320110922B0110922C0110922D0110926C
:101240002E0146015701B4C01130F9F02234E9F003
:101250008434D9F040912B0150912C0160912D01E3
:1012600070912E01403951406105710508F04EC062
:1012700040912B0150912C0160912D0170912E0114
:10128000452B462B472B09F441C080912F019091AB
:101290003001A0913101B0913201803E9140A10511
:1012A000B10578F480912F0190913001A091310126
:1012B000B0913201892B8A2B8B2B19F00E941805D3
:1012C00012C080912F0190913001A0913101B09115
:1012D00032018B339240A105B10518F00E94FD0444
:1012E00002C00E94800410922B0110922C011092D7
:1012F0002D0110922E0110922F01109230011092A8
:101300003101109232014601570152C0112359F1A7
:10131000233449F1823539F140912F015091300148
:101320006091310170913201413253406105710584
:1013300038F140912B0150912C0160912D01709159
:101340002E014A33524061057105D0F440912B01C2
:1013500050912C0160912D0170912E01473D51401B
:101360006105710568F00E94AA0410922F01109285
:10137000300110923101109232014601570118C01C
:101380008035B1F40E945A1156980E949F110E9414
:10139000540F8823D1F3EAE1F3E0808191810E9428
:1013A00045158F7D803589F70E945A010E945E1194
:1013B0000E944C116B017C010E94440581111DC0EB
:1013C00080913B0190913C01092E000CAA0BBB0BB4
:1013D0002B813C814D815E81820F931FA41FB51F1D
:1013E000C816D906EA06FB0640F0642D80E00E948C
:1013F0008505CB82DC82ED82FE820E94440581114C
:101400001DC08091390190913A01092E000CAA0B60
:10141000BB0B2F81388549855A85820F931FA41FE6
:10142000B51FC816D906EA06FB0640F0632D842DC9
:101430000E948505CF82D886E986FA860E944405F7
:1014400081111DC08091370190913801092E000C47
:10145000AA0BBB0B2B853C854D855E85820F931FA8
:10146000A41FB51FC816D906EA06FB0640F0642D76
:1014700082E00E948505CB86DC86ED86FE860E9492
:10148000440581111DC08091350190913601092ECE
:10149000000CAA0BBB0B2F85388949895A89820F0A
:1014A000931FA41FB51FC816D906EA06FB0640F015
:1014B000632D80E00E94BE05CF86D88AE98AFA8A29
:1014C0000E94440581111DC0809133019091340127
:1014D000092E000CAA0BBB0B2B893C894D895E8918
:1014E000820F931FA41FB51FC816D906EA06FB0674
:1014F00040F0642D842D0E94BE05CB8ADC8AED8AE3
:10150000FE8A0E940B0649815A81481B51094330CB
:101510005105A9F03CF44130510559F042305105D4
:1015200059F015C04430510569F04530510569F056
:101530000EC088E082B90BC088E182B908C088E398
:1015400082B905C088E782B902C088EF82B90E94DB
:101550004405811105C00E943305882309F450CD4C
:101560000E94861012B85DC080919D0184258093F1
:101570009D0180912F0190913001A0913101B09196
:1015800032018C329140A105B10508F4CECD232D56
:10159000832D06CE4F8A02C082E08F8BD501C40115
:1015A0008C509E4FAF4FBF4FC816D906EA06FB06B8
:1015B000D8F276CD90919D01942590939D0184342D
:1015C00009F4DCCD282F1F8A832DA1CDB501A401FC
:1015D0004C505E4F6F4F7F4FC416D506E606F70698
:1015E00048F361CD90919D01942590939D011F8AB0
:1015F000232D89CDB501A4014C505E4F6F4F7F4F15
:10160000C416D506E606F70608F051CDEBCF90914B
:101610009D01942590939D01133009F4B0CD232DA5
:1016200072CD67960FB6F894DEBF0FBECDBFDF91C7
:10163000CF911F910F91FF90EF90DF90CF90BF90CF
:10164000AF909F908F907F906F905F904F903F9062
:101650002F900895CF92DF92EF92FF920F931F93F6
:10166000CF93DF93CDB7DEB72B970FB6F894DEBFDD
:101670000FBECDBF0E94EB100E94141284E195E0D2
:1016800090933C0180933B0182EE94E090933A0169
:101690008093390180EB94E0909338018093370177
:1016A0008EE794E090933601809335018CE494E0CA
:1016B000909334018093330163E070E08AE090E01E
:1016C0000E9423108CEF90E09F938F930E949915B6
:1016D0000E94AF0DFC01C088D188E288F3880E9487
:1016E000C90C0F900F90C616D706E806F90608F049
:1016F00063C067E070E08AE090E00E9423108AEB0C
:1017000090E09F938F930E94991569E070E080E0CC
:1017100090E00E9423100F900F9000E010E00F2E39
:10172000FAE1EF2EF3E0FF2EF02DDD24D394C12C4F
:101730000E94540F8823B1F1F701808191810E94AA
:1017400045159C01982F843459F410161106CCF4D9
:101750000150110969E070E0C8010E9423101EC009
:101760008A3019F1822F8F7D81544D2D8A3108F0F6
:101770004C2D411106C08D2D903209F08C2D8823FF
:1017800069F0E1E0F0E0EC0FFD1FE00FF11F2083B6
:10179000C90199270E94BF150F5F1F4F0A3011051D
:1017A0003CF203C00A3011051CF21B86CE010196E3
:1017B0000E94D20C0E94B20D65E070E08AE090E0D9
:1017C0000E9423108CE990E09F938F930E949915BB
:1017D0000E9446100E945A010F900F900E947C01B7
:1017E0008F3FE1F32B960FB6F894DEBF0FBECDBF4F
:1017F000DF91CF911F910F91FF90EF90DF90CF90ED
:101800000895CF93DF930E940E0680913B01909143
:101810003C018055910990933C0180933B0180915C
:10182000390190913A018055910990933A01809342
:101830003901809137019091380180559109909339
:1018400038018093370180913501909136018055A0
:1018500091099093360180933501809133019091E5
:101860003401805591099093340180933301C0E194
:10187000D0E02FE782E392E0215080409040E1F7F2
:1018800000C000000E942407219799F780ED97E09F
:101890000E945D12DF91CF9108950E942F070E9450
:1018A00049070E9486070E94B5070E9433058823D6
:1018B00019F00E94010CF5CF0E942A0BF2CFE2EB47
:1018C000F1E085E090E0A0E0B0E080839183A28326
:1018D000B38384E090E0A0E0B0E084839583A683A6
:1018E000B78383E090E0A0E0B0E080879187A28793
:1018F000B38782E090E0A0E0B0E084879587A68778
:10190000B78781E090E0A0E0B0E0808B918BA28B64
:10191000B38B1092C6011092C7011092C8011092A9
:10192000C90108954091C6015091C7016091C80155
:101930007091C901480F591F611D711D4093C60167
:101940005093C7016093C8017093C90108958091B5
:10195000C6019091C701A091C801B091C9018093BF
:101960009E0190939F01A093A001B093A1010895BF
:1019700080919E0190919F01A091A001B091A10141
:101980008093C6019093C701A093C801B093C90189
:1019900008956091C6017091C7018091C80190912E
:1019A000C90108954F925F926F927F928F929F929A
:1019B000AF92BF92CF92DF92EF92FF920F931F935D
:1019C000CF93DF93CDB7DEB766970FB6F894DEBF3F
:1019D0000FBECDBF4C01C090B201D090B301E090DA
:1019E000B401F090B5018091C6019091C701A0911A
:1019F000C801B091C901C816D906EA06FB0608F469
:101A00007EC0E6EBF1E001E010E0C190D190E19002
:101A1000F190C816D906EA06FB0608F069C0F8017D
:101A2000EE0FFF1FEE0FFF1FEE54FE4F80839183DA
:101A3000A283B3832BE0209FC001219F900D11242E
:101A40009C0126533E4F59014BE050E0B901CE01B5
:101A500001960E943615B401C5010E942B1548015C
:101A60003FEF831A930A85E0881691040CF060C05A
:101A70008401000F111F000F111F0E541E4F2BE089
:101A8000289DC001299D900D1124FC01E653FE4FB5
:101A90005F01F8014080518062807380C192D192D1
:101AA000E192F1928F014BE050E0B501CE010C962E
:101AB0000E943615BE016F5F7F4FC5010E942B1536
:101AC0004BE050E0BE01645F7F4FCE0101960E9463
:101AD0003615FFEF8F1A9F0A2BE0A20EB11CC42C03
:101AE000D52CE62CF72C35E08316910494F220C017
:101AF0000F5F1F4F0530110509F087CF19C0809384
:101B0000B2019093B301A093B401B093B5014BE03F
:101B100050E06AEC71E0CE0101960E943615B401E6
:101B20008AEC91E00E942B1588248394912CA0CFFD
:101B300066960FB6F894DEBF0FBECDBFDF91CF9192
:101B40001F910F91FF90EF90DF90CF90BF90AF90DB
:101B50009F908F907F906F905F904F90089582EB51
:101B600091E008950F931F93CF93DF9302EB11E061
:101B7000C0E0D0E0F80141915191619171918F01E4
:101B8000CE010E947918BE016B5F7F4F4BE050E0A1
:101B9000CE0186539E4F0E9457182196C530D1051D
:101BA00049F7DF91CF911F910F91089560933D0107
:101BB0009093A6018093A5011092A8011092A7010D
:101BC0001092A4011092A30108950F931F93CF9335
:101BD000DF93CDB7DEB728970FB6F894DEBF0FBE00
:101BE000CDBFE091A701F091A801309781F0149149
:101BF00010FF06C01092A8011092A70100E06BC070
:101C00003196F093A801E093A70100E064C0E09151
:101C1000A301F091A401309709F449C0CF010196C6
:101C20009093A4018093A301E081E1110AC0109276
:101C3000A4011092A30180E18093A20100E010E0D2
:101C40004AC08FE98E0F8A3170F4F0E0EE0FFF1F6B
:101C5000E554FF4F859194919093A8018093A7013B
:101C600000E010E038C08FEB8E0F8A3170F4F0E0A6
:101C7000EE0FFF1FE550FF4F859194919093A801BF
:101C80008093A70100E010E026C080ED8E0F8A301F
:101C900000F5F0E0EE0FFF1FE75FFE4F8591949196
:101CA0009093A8018093A70100E010E014C08091F8
:101CB000A5019091A60101E0009709F000E0909342
:101CC000A4018093A3011092A6011092A50110E037
:101CD00002C000E010E00E94240720913D01FE01B7
:101CE0003896CE010196112314F4208301C010828E
:101CF000110F3197E817F907B1F71982BE016F5F2D
:101D00007F4F8FE00E9407078091A201882389F00E
:101D100081508093A201002311F0882311F090E0FC
:101D200003C091E001C091E081E0992329F080E0B7
:101D300003C00023A1F3F7CF28960FB6F894DEBFB7
:101D40000FBECDBFDF91CF911F910F910895CF931B
:101D5000C82F8A3019F48DE00E94A70E9FB79078A3
:101D600002C0992329F1809102028F3FD1F3F894A8
:101D7000E091010281E08E0F80930102F0E0ED5FBF
:101D8000FD4FC083809102028F5F80930202809199
:101D900001028F3F11F410920102E1ECF0E080812A
:101DA00080628083992339F0789480E090E005C0C8
:101DB00081E090E002C080E090E0CF9108958091B2
:101DC00014038823E1F32FB72078F894809102035D
:101DD0003091140390E0831B91095AF4E0910203BF
:101DE00080911403F0E0E81BF109ED5EFC4F808167
:101DF0000AC0E091020380911403F0E0E81BF109AE
:101E0000ED5FFC4F808190911403915090931403E7
:101E1000222309F0789490E0089510920102109224
:101E200002021092020310921403109213034093C3
:101E3000A901DC01CB01880F991FAA1FBB1F880FC6
:101E4000991FAA1FBB1F9C01AD01220F331F441F06
:101E5000551F60E072E18AE790E00E94CD14BA015C
:101E6000A9014F5F5F4F6F4F7F4FDB01CA011AF42B
:101E70000196A11DB11DB595A795979587950197D9
:101E80009093C5008093C400E1ECF0E088E180838A
:101E9000808180688083EAE1F3E08EE391E09383C0
:101EA00082839183808308959091140381E091113E
:101EB00001C080E008951092020310921403089567
:101EC0001F920F920FB60F9211242F938F939F930F
:101ED000EF93FF9380910202882329F18091010200
:101EE0002091020290E0821B91095AF4E0910102D4
:101EF00080910202F0E0E81BF109EE5FFC4F908157
:101F00000AC0E091010280910202F0E0E81BF109B1
:101F1000ED5FFD4F9081809102028150809302021B
:101F20009093C60005C0E1ECF0E080818F7D808356
:101F3000FF91EF919F918F912F910F900FBE0F9076
:101F40001F9018951F920F920FB60F9211242F9386
:101F50003F934F935F936F937F938F939F93AF9331
:101F6000BF93CF93EF93FF93C091C6008091A901D7
:101F7000882349F0809102028F3F29F060E070E0F1
:101F80008C2F0E94A70E80911403803120F081E0F5
:101F90008093130318C0CD3009F4CAE0E091020326
:101FA00081E08E0F80930203F0E0ED5FFC4FC08371
:101FB000809114038F5F809314038091020380311A
:101FC00011F410920203FF91EF91CF91BF91AF9165
:101FD0009F918F917F916F915F914F913F912F9141
:101FE0000F900FBE0F901F90189594B1906B94B9FD
:101FF0002C9A90E59CBD883021F0803211F082301F
:1020000019F491E09DBD01C01DBC803269F028F437
:10201000883071F0803161F00EC0803429F0803852
:1020200051F48CB581608CBD8CB582608CBD03C0D1
:102030008CB581608CBD2C9808958EBD0DB407FEC3
:10204000FDCF8EB508959F938F937F936F9380E517
:1020500092E09F938F930E9499150F900F900F908D
:102060000F900F900F9008958BE492E09F938F93C1
:102070000E9499150F900F90089587E492E09F9326
:102080008F930E9499150F900F900895EF92FF92F1
:102090000F931F93CF93DF936FE070E08AE090E09F
:1020A0000E9423108FE691E09F938F930E948315E7
:1020B00061E170E08AE090E00E9423100E94AF0D81
:1020C000EC017C0184E1E80EF11C0F900F900CE70D
:1020D00011E0888199812A813B8124963F932F9337
:1020E0009F938F931F930F930E9483150F900F90D0
:1020F0000F900F900F900F90CE15DF0551F7DF91E5
:10210000CF911F910F91FF90EF9008956CE070E0D8
:102110008BE490E00E9423100E943D100E94C90CA5
:102120006A3071058105910538F46CE070E08EE449
:1021300090E00E94231014C00E94C90C64367105FF
:102140008105910538F46CE070E08DE490E00E9428
:10215000231006C06CE070E08CE490E00E94231035
:102160000E94C90C9F938F937F936F9383E891E0B4
:102170009F938F930E9483150F900F900F900F9055
:102180000F900F9008958091AA019091AB01019654
:102190009093AB018093AA016DE070E08BE490E036
:1021A0000E9423100E943D106DE070E08EE490E0EC
:1021B0000E9423108091AB018F938091AA018F938D
:1021C00087E891E09F938F930E9483150F900F9063
:1021D0000F900F9008951092AB011092AA010895EC
:1021E000CF931092AE011092AF011092B0011092F5
:1021F000B10116BC8CE787BD82E084BD83E085BD5C
:10220000EEE6F0E080818260808385B3827085BBDA
:10221000209150013091510140E050E060E472E4BF
:102220008FE090E00E94AB14C22F622F732F709347
:1022300016036093150380E090E00E94B013209194
:102240004C0130914D0140914E0150914F010E943F
:102250003E1420E030E048EC52E40E940F130E944C
:1022600081137093190360931803C150C093B30096
:102270008091180390911903009719F41092B400FB
:1022800003C081508093B40083EA8093B0008AE059
:102290008093B100CF9108952FB7F8946091AE016B
:1022A0007091AF018091B0019091B10122230CF4A3
:1022B0007894089581E0809317030895109217038E
:1022C00008951F920F920FB60F9211248F939F9330
:1022D000AF93BF9380911703811113C08091AE011A
:1022E0009091AF01A091B001B091B1010196A11DF3
:1022F000B11D8093AE019093AF01A093B001B09354
:10230000B101BF91AF919F918F910F900FBE0F9030
:102310001F90189587B18FEF87B9529A8FE097E297
:102320009093890080938800109280008DE08093C4
:10233000810082E080936F0086BB7894089580913D
:10234000AC0181113DC08091AD01811123C040914C
:102350005C0150915D019A01ADECBCEC0E94F2145D
:102360009695879596958795969587959C01220FCA
:10237000331F880F991F880F991F880F991F820F8D
:10238000931F481B590BFA01EE5AFE4F808188B902
:102390001BB843C020915C0130915D01ADECBCECF9
:1023A0000E94F214969587959695879596958795B0
:1023B000FC01EE5AFE4F808188B984E08BB92DC0B4
:1023C0008091AD01811123C040915C0150915D016C
:1023D0009A01ADECBCEC0E94F21496958795969507
:1023E0008795969587959C01220F331F880F991F1B
:1023F000880F991F880F991F820F931F481B590B35
:10240000FA01EE5AFE4F808188B91BB806C0809150
:102410005201806888B984E08BB99091AD0181E068
:1024200089278093AD0108958FE090E090935D013E
:1024300080935C01089580915C0190915D01089505
:102440001F920F920FB60F9211248F939F9380913A
:10245000170381112BC080915C0190915D01019760
:1024600090935D0180935C0180915C0190915D018E
:10247000019789F48091AC0181110DC08BE08093AC
:10248000810081E08093AC0189E090E090935D0150
:1024900080935C010BC080915C0190915D01892B60
:1024A00029F48DE0809381001092AC019F918F916F
:1024B0000F900FBE0F901F9018952F923F924F9242
:1024C0005F926F927F928F929F92AF92BF92CF92C4
:1024D000DF92EF92FF920F931F93CF93DF9300D081
:1024E000CDB7DEB79A83898303E010E00F2EF3E3C4
:1024F0004F2E542CF3E16F2EF0E47F2EF02D0F2E93
:10250000812C912CF0E2AF2EF2E4BF2EF02D0F2E95
:10251000F0E4CF2EF2E4DF2EFFE0EF2EF12CF02DD1
:102520000F2EF5E12F2EF3E03F2EF02D4B9B07C031
:10253000569A89819A819093510180935001009B12
:1025400009C080924C0190924D01A0924E01B09230
:102550004F0108C040924C0150924D0160924E01D3
:1025600070924F01209150013091510140E050E0B4
:10257000C701B6010E94AB143093160320931503D4
:10258000B90180E090E00E94B01320914C0130919D
:102590004D0140914E0150914F010E943E1420E0A8
:1025A00030E048EC52E40E940F130E9481137093B4
:1025B0001903609318036115710529F06150E4EB6C
:1025C000F0E0608303C0E4EBF0E01082F101808171
:1025D0008150E3EBF0E08083FFEF21EE84E0F150E7
:1025E00020408040E1F700C000000150110909F0CF
:1025F0009DCF56980F900F90DF91CF911F910F9123
:10260000FF90EF90DF90CF90BF90AF909F908F9012
:102610007F906F905F904F903F902F9008950E9411
:1026200023130C9404140E94FD1358F00E94F61317
:1026300040F029F45F3F29F00C94ED1351110C94F4
:1026400038140C94F3130E94151468F39923B1F312
:10265000552391F3951B550BBB27AA2762177307C8
:10266000840738F09F5F5F4F220F331F441FAA1F5C
:10267000A9F335D00E2E3AF0E0E832D09150504018
:10268000E695001CCAF72BD0FE2F29D0660F771FC6
:10269000881FBB1F261737074807AB07B0E809F0AC
:1026A000BB0B802DBF01FF2793585F4F3AF09E3F31
:1026B000510578F00C94ED130C9438145F3FE4F35B
:1026C000983ED4F3869577956795B795F7959F5F74
:1026D000C9F7880F911D9695879597F90895E1E0C0
:1026E000660F771F881FBB1F621773078407BA071F
:1026F00020F0621B730B840BBA0BEE1F88F7E0957A
:1027000008950E941D1488F09F5798F0B92F9927BB
:10271000B751B0F0E1F0660F771F881F991F1AF0CC
:10272000BA95C9F714C0B13091F00E943714B1E0E6
:1027300008950C943714672F782F8827B85F39F0E5
:10274000B93FCCF3869577956795B395D9F73EF465
:1027500090958095709561957F4F8F4F9F4F08950D
:10276000E89409C097FB3EF490958095709561952B
:102770007F4F8F4F9F4F9923A9F0F92F96E9BB27E1
:102780009395F695879577956795B795F111F8CF5D
:10279000FAF4BB0F11F460FF1BC06F5F7F4F8F4FC8
:1027A0009F4F16C0882311F096E911C0772321F0BE
:1027B0009EE8872F762F05C0662371F096E8862F56
:1027C00070E060E02AF09A95660F771F881FDAF7AD
:1027D000880F9695879597F9089597F99F6780E8F0
:1027E00070E060E008959FEF80EC089500240A9463
:1027F0001616170618060906089500240A941216DC
:102800001306140605060895092E0394000C11F40E
:10281000882352F0BB0F40F4BF2B11F460FF04C0BB
:102820006F5F7F4F8F4F9F4F089557FD9058440F14
:10283000551F59F05F3F71F04795880F97FB991F1F
:1028400061F09F3F79F087950895121613061406DC
:10285000551FF2CF4695F1DF08C016161706180669
:10286000991FF1CF86957105610508940895E89444
:10287000BB2766277727CB0197F908950E9451144B
:102880000C9404140E94F61338F00E94FD1320F0FB
:10289000952311F00C94ED130C94F31311240C9464
:1028A00038140E94151470F3959FC1F3950F50E0F2
:1028B000551F629FF001729FBB27F00DB11D639FF2
:1028C000AA27F00DB11DAA1F649F6627B00DA11D98
:1028D000661F829F2227B00DA11D621F739FB00D3E
:1028E000A11D621F839FA00D611D221F749F3327AE
:1028F000A00D611D231F849F600D211D822F762F47
:102900006A2F11249F5750409AF0F1F088234AF023
:10291000EE0FFF1FBB1F661F771F881F915050408F
:10292000A9F79E3F510580F00C94ED130C943814D8
:102930005F3FE4F3983ED4F3869577956795B79516
:10294000F795E7959F5FC1F7FE2B880F911D969530
:10295000879597F90895A1E21A2EAA1BBB1BFD01CA
:102960000DC0AA1FBB1FEE1FFF1FA217B307E4076E
:10297000F50720F0A21BB30BE40BF50B661F771FC6
:10298000881F991F1A9469F76095709580959095A6
:102990009B01AC01BD01CF010895052E97FB1EF4EC
:1029A00000940E94E41457FD07D00E94AB1407FC6A
:1029B00003D04EF40C94E414509540953095219535
:1029C0003F4F4F4F5F4F089590958095709561955B
:1029D0007F4F8F4F9F4F0895EE0FFF1F0590F4918B
:1029E000E02D0994A29FB001B39FC001A39F700D79
:1029F000811D1124911DB29F700D811D1124911D07
:102A0000089597FB10F8169400080F93083098F07B
:102A10000850232F342F452F562F672F782F892FBB
:102A2000902DF4CF05949795879577956795579551
:102A30004795379527950A95AAF70F910895002491
:102A4000A7FD00942A173005400550056005700564
:102A5000800590050895FB01DC010D900020E9F749
:102A6000119701900D920020E1F70895FB01DC0120
:102A70004150504048F001900D920020C9F701C02C
:102A80001D9241505040E0F70895CF93DF93EC0141
:102A90002B8120FF33C026FF0AC02F7B2B838E8122
:102AA0009F8101969F838E838A8190E029C022FFB7
:102AB0000FC0E881F9818081082E000C990B0097E6
:102AC00019F420622B831AC03196F983E8830EC073
:102AD000EA85FB85099597FF09C02B81019611F0C6
:102AE00080E201C080E1822B8B8308C02E813F8170
:102AF0002F5F3F4F3F832E83992702C08FEF9FEFB9
:102B0000DF91CF910895A0E0B0E0E9E8F5E10C9401
:102B10009518AE014B5F5F4FFA0161917191AF0162
:102B200080911C0390911D030E94C615E2E00C9455
:102B3000B118A0E0B0E0EFE9F5E10C949318AE0114
:102B4000495F5F4FDA016D917D91AD010AE113E0BC
:102B5000F80182819381DC0113962C9113972860F0
:102B600013962C930E94C615D8011296ED91FC91F4
:102B700013972381277F2383E4E00C94AF1860919F
:102B80001C0370911D030E94BD170895ABE0B0E0D7
:102B9000ECECF5E10C9485186C017B018A01FC01D9
:102BA00017821682838181FFCCC1CE0101963C0140
:102BB000F6019381F70193FD859193FF81917F0148
:102BC000882309F4BAC1853239F493FD859193FFC6
:102BD00081917F01853229F4B60190E00E94BD17F2
:102BE000E7CF912C212C312CFFE1F315D8F08B325B
:102BF00079F038F4803279F08332A1F4232D20610A
:102C00001DC08D3261F0803369F4232D216016C020
:102C1000832D8260382EE32DE4603E2E2AC0F32DF2
:102C2000F8601DC037FC2DC020ED280F2A3040F081
:102C30008E32B9F436FC81C1232D2064322E19C0A6
:102C400036FE06C08AE0989E200D1124922E11C0F7
:102C5000EAE02E9E200D1124222EF32DF0623F2E4D
:102C600008C08C3621F4832D8068382E02C0883647
:102C700041F4F70193FD859193FF81917F018111CB
:102C8000B3CF982F9F7D9554933028F40C5F1F4F3E
:102C90009FE399830DC0833631F0833771F083351C
:102CA00009F059C021C0F801808189830E5F1F4F50
:102CB00088248394912C530113C02801F2E04F0E15
:102CC000511CF801A080B18036FE03C0692D70E070
:102CD00002C06FEF7FEFC5010E94B2174C01820165
:102CE000F32DFF773F2E16C0280122E0420E511C23
:102CF000F801A080B18036FE03C0692D70E002C0EB
:102D00006FEF7FEFC5010E94A7174C01F32DF0680C
:102D10003F2E820133FC1BC0822D90E0881699065D
:102D2000B0F4B60180E290E00E94BD172A94F4CF7F
:102D3000F50137FC859137FE81915F01B60190E086
:102D40000E94BD1721102A9421E0821A9108811453
:102D5000910471F7E8C0843611F0893641F5F80125
:102D600037FE07C060817181828193810C5F1F4FA4
:102D700008C060817181072E000C880B990B0E5FD3
:102D80001F4FF32DFF763F2E97FF09C0909580953A
:102D9000709561957F4F8F4F9F4FF0683F2E2AE0CF
:102DA00030E0A3010E94F917882E861845C08537A8
:102DB00031F4232D2F7EB22E2AE030E025C0932D52
:102DC000997FB92E8F36C1F018F4883579F0B5C0E7
:102DD000803719F0883721F0B0C0E92FE061BE2EAE
:102DE000B4FE0DC0FB2DF460BF2E09C034FE0AC036
:102DF000292F2660B22E06C028E030E005C020E171
:102E000030E002C020E132E0F801B7FE07C0608187
:102E10007181828193810C5F1F4F06C06081718137
:102E200080E090E00E5F1F4FA3010E94F917882EEB
:102E30008618FB2DFF773F2E36FE0DC0232D2E7FEB
:102E4000A22E891458F434FE0BC032FC09C0832D25
:102E50008E7EA82E05C0B82CA32C03C0B82C01C0B0
:102E6000B92CA4FE0FC0FE01E80DF11D8081803356
:102E700021F49A2D997EA92E09C0A2FE06C0B39412
:102E8000B39404C08A2D867809F0B394A3FC11C0D2
:102E9000A0FE06C0B21488F4280C922C9B180EC019
:102EA000B21460F4B60180E290E00E94BD17B394C2
:102EB000F7CFB21418F42B1802C0982C212CA4FEC2
:102EC00010C0B60180E390E00E94BD17A2FE17C0BB
:102ED000A1FC03C088E790E002C088E590E0B6015D
:102EE0000CC08A2D867859F0A1FE02C08BE201C089
:102EF00080E2A7FC8DE2B60190E00E94BD17891424
:102F000038F4B60180E390E00E94BD179A94F7CFA1
:102F10008A94F301E80DF11D8081B60190E00E94D2
:102F2000BD178110F5CF222009F442CEB60180E210
:102F300090E00E94BD172A94F6CFF6018681978112
:102F400002C08FEF9FEF2B96E2E10C94A118FC01D9
:102F50000590615070400110D8F7809590958E0FC4
:102F60009F1F0895FC016150704001900110D8F737
:102F7000809590958E0F9F1F08950F931F93CF9369
:102F8000DF93FB01238121FD03C08FEF9FEF2CC056
:102F900022FF16C04681578124813581421753078D
:102FA00044F4A081B1819D012F5F3F4F3183208385
:102FB0008C93268137812F5F3F4F3783268314C040
:102FC0008B01EC01FB010084F185E02D0995892B33
:102FD000E1F6D80116968D919C9117970196179658
:102FE0009C938E931697CE01DF91CF911F910F91F5
:102FF0000895FA01AA27283051F1203181F1E8948F
:103000006F936E7F6E5F7F4F8F4F9F4FAF4FB1E0DB
:103010003ED0B4E03CD0670F781F891F9A1FA11DD6
:10302000680F791F8A1F911DA11D6A0F711D811DD7
:10303000911DA11D20D009F468943F912AE0269F9C
:1030400011243019305D3193DEF6CF010895462FFB
:103050004770405D4193B3E00FD0C9F7F6CF462FDC
:103060004F70405D4A3318F0495D31FD4052419345
:1030700002D0A9F7EACFB4E0A69597958795779502
:103080006795BA95C9F700976105710508959B0189
:10309000AC010A2E06945795479537952795BA9512
:1030A000C9F7620F731F841F951FA01D0895DC01CF
:1030B000A40FB51F4150504048F0CB01840F951F1D
:1030C0002E910E94681841505040D0F70895262F45
:1030D000F999FECF92BD81BDF89A019700B402160E
:1030E00039F01FBA20BD0FB6F894FA9AF99A0FBEBC
:1030F00008950396272F0E9468180E946718252FAD
:103100000E946818242F0C9468182F923F924F92B7
:103110005F926F927F928F929F92AF92BF92CF9267
:10312000DF92EF92FF920F931F93CF93DF93CDB770
:10313000DEB7CA1BDB0B0FB6F894DEBF0FBECDBFE8
:1031400009942A88398848885F846E847D848C84B9
:103150009B84AA84B984C884DF80EE80FD800C81C2
:103160001B81AA81B981CE0FD11D0FB6F894DEBFA5
:0C3170000FBECDBFED010895F894FFCF15
:10317C00FFDDDDDDDD0FDF0F3C11F8789CF19C1DD0
:10318C00F6E698C118C398C118C31C0EC7E170703D
:10319C003838C7C3070F0F0F0F0F021202000012AF
:1031AC000200004C047E04B004E20414050F00007D
:1031BC00000300000000A70EDF0E0000000000401E
:1031CC00C8003F065B4F666D7D077F6F0F00465250
:1031DC004F47474552203434343536353533004863
:1031EC004947482053434F5245533A00256C750AC2
:0A31FC00092000256C750025640011
:00000001FF
